{
    "contractName": "ConcreteLendingBorrowing",
    "abi": [
        {
            "inputs": [
                {
                    "internalType": "contract IERC20",
                    "name": "_token",
                    "type": "address"
                }
            ],
            "stateMutability": "nonpayable",
            "type": "constructor"
        },
        {
            "inputs": [
                {
                    "internalType": "address",
                    "name": "owner",
                    "type": "address"
                }
            ],
            "name": "OwnableInvalidOwner",
            "type": "error"
        },
        {
            "inputs": [
                {
                    "internalType": "address",
                    "name": "account",
                    "type": "address"
                }
            ],
            "name": "OwnableUnauthorizedAccount",
            "type": "error"
        },
        {
            "anonymous": false,
            "inputs": [
                {
                    "indexed": true,
                    "internalType": "address",
                    "name": "user",
                    "type": "address"
                },
                {
                    "indexed": false,
                    "internalType": "uint256",
                    "name": "amount",
                    "type": "uint256"
                }
            ],
            "name": "Deposited",
            "type": "event"
        },
        {
            "anonymous": false,
            "inputs": [
                {
                    "indexed": true,
                    "internalType": "address",
                    "name": "user",
                    "type": "address"
                },
                {
                    "indexed": false,
                    "internalType": "uint256",
                    "name": "amount",
                    "type": "uint256"
                }
            ],
            "name": "LoanRepaid",
            "type": "event"
        },
        {
            "anonymous": false,
            "inputs": [
                {
                    "indexed": true,
                    "internalType": "address",
                    "name": "user",
                    "type": "address"
                },
                {
                    "indexed": false,
                    "internalType": "uint256",
                    "name": "amount",
                    "type": "uint256"
                }
            ],
            "name": "LoanTaken",
            "type": "event"
        },
        {
            "anonymous": false,
            "inputs": [
                {
                    "indexed": true,
                    "internalType": "address",
                    "name": "previousOwner",
                    "type": "address"
                },
                {
                    "indexed": true,
                    "internalType": "address",
                    "name": "newOwner",
                    "type": "address"
                }
            ],
            "name": "OwnershipTransferred",
            "type": "event"
        },
        {
            "anonymous": false,
            "inputs": [
                {
                    "indexed": true,
                    "internalType": "address",
                    "name": "user",
                    "type": "address"
                },
                {
                    "indexed": false,
                    "internalType": "uint256",
                    "name": "amount",
                    "type": "uint256"
                }
            ],
            "name": "Withdrawn",
            "type": "event"
        },
        {
            "inputs": [
                {
                    "internalType": "uint256",
                    "name": "",
                    "type": "uint256"
                }
            ],
            "name": "depositorAddresses",
            "outputs": [
                {
                    "internalType": "address",
                    "name": "",
                    "type": "address"
                }
            ],
            "stateMutability": "view",
            "type": "function",
            "constant": true
        },
        {
            "inputs": [
                {
                    "internalType": "address",
                    "name": "",
                    "type": "address"
                }
            ],
            "name": "deposits",
            "outputs": [
                {
                    "internalType": "uint256",
                    "name": "amount",
                    "type": "uint256"
                },
                {
                    "internalType": "uint256",
                    "name": "timestamp",
                    "type": "uint256"
                }
            ],
            "stateMutability": "view",
            "type": "function",
            "constant": true
        },
        {
            "inputs": [
                {
                    "internalType": "address",
                    "name": "",
                    "type": "address"
                }
            ],
            "name": "loans",
            "outputs": [
                {
                    "internalType": "uint256",
                    "name": "amount",
                    "type": "uint256"
                },
                {
                    "internalType": "uint256",
                    "name": "timestamp",
                    "type": "uint256"
                }
            ],
            "stateMutability": "view",
            "type": "function",
            "constant": true
        },
        {
            "inputs": [],
            "name": "owner",
            "outputs": [
                {
                    "internalType": "address",
                    "name": "",
                    "type": "address"
                }
            ],
            "stateMutability": "view",
            "type": "function",
            "constant": true
        },
        {
            "inputs": [],
            "name": "renounceOwnership",
            "outputs": [],
            "stateMutability": "nonpayable",
            "type": "function"
        },
        {
            "inputs": [],
            "name": "token",
            "outputs": [
                {
                    "internalType": "contract IERC20",
                    "name": "",
                    "type": "address"
                }
            ],
            "stateMutability": "view",
            "type": "function",
            "constant": true
        },
        {
            "inputs": [
                {
                    "internalType": "address",
                    "name": "newOwner",
                    "type": "address"
                }
            ],
            "name": "transferOwnership",
            "outputs": [],
            "stateMutability": "nonpayable",
            "type": "function"
        },
        {
            "inputs": [
                {
                    "internalType": "uint256",
                    "name": "amount",
                    "type": "uint256"
                }
            ],
            "name": "deposit",
            "outputs": [],
            "stateMutability": "nonpayable",
            "type": "function"
        },
        {
            "inputs": [
                {
                    "internalType": "uint256",
                    "name": "amount",
                    "type": "uint256"
                }
            ],
            "name": "withdraw",
            "outputs": [],
            "stateMutability": "nonpayable",
            "type": "function"
        },
        {
            "inputs": [
                {
                    "internalType": "uint256",
                    "name": "amount",
                    "type": "uint256"
                }
            ],
            "name": "takeLoan",
            "outputs": [],
            "stateMutability": "nonpayable",
            "type": "function"
        },
        {
            "inputs": [
                {
                    "internalType": "uint256",
                    "name": "amount",
                    "type": "uint256"
                }
            ],
            "name": "repayLoan",
            "outputs": [],
            "stateMutability": "nonpayable",
            "type": "function"
        }
    ],
    "bytecode": "0x608060405234801561001057600080fd5b50604051610ad5380380610ad583398101604081905261002f916100d6565b80338061005657604051631e4fbdf760e01b81526000600482015260240160405180910390fd5b61005f81610086565b50600180546001600160a01b0319166001600160a01b039290921691909117905550610106565b600080546001600160a01b038381166001600160a01b0319831681178455604051919092169283917f8be0079c531659141344cd1fd0a4f28419497f9722a3daafe3b4186f6b6457e09190a35050565b6000602082840312156100e857600080fd5b81516001600160a01b03811681146100ff57600080fd5b9392505050565b6109c0806101156000396000f3fe608060405234801561001057600080fd5b50600436106100a95760003560e01c8063aa175bef11610071578063aa175bef14610144578063ab7b1c8914610157578063b6b55f251461016a578063f2fde38b1461017d578063fc0c546a14610190578063fc7e286d146101a357600080fd5b80632e1a7d4d146100ae578063715018a6146100c357806373b4086b146100cb5780638c803fc21461010c5780638da5cb5b1461011f575b600080fd5b6100c16100bc3660046108c4565b6101ca565b005b6100c1610301565b6100f26100d93660046108dd565b6003602052600090815260409020805460019091015482565b604080519283526020830191909152015b60405180910390f35b6100c161011a3660046108c4565b610315565b6000546001600160a01b03165b6040516001600160a01b039091168152602001610103565b61012c6101523660046108c4565b61050b565b6100c16101653660046108c4565b610535565b6100c16101783660046108c4565b610678565b6100c161018b3660046108dd565b610809565b60015461012c906001600160a01b031681565b6100f26101b13660046108dd565b6002602052600090815260409020805460019091015482565b3360009081526002602052604090205481111561022e5760405162461bcd60e51b815260206004820181905260248201527f496e73756666696369656e742062616c616e636520746f20776974686472617760448201526064015b60405180910390fd5b336000908152600260205260408120805483929061024d908490610923565b909155505060015460405163a9059cbb60e01b8152336004820152602481018390526001600160a01b039091169063a9059cbb906044016020604051808303816000875af11580156102a3573d6000803e3d6000fd5b505050506040513d601f19601f820116820180604052508101906102c7919061093c565b5060405181815233907f7084f5476618d8e60b11ef0d7d3f06914655adb8793e28ff7f018d4c76d505d5906020015b60405180910390a250565b610309610847565b6103136000610874565b565b600081116103655760405162461bcd60e51b815260206004820181905260248201527f416d6f756e74206d7573742062652067726561746572207468616e207a65726f6044820152606401610225565b6001546040516370a0823160e01b815230600482015282916001600160a01b0316906370a0823190602401602060405180830381865afa1580156103ad573d6000803e3d6000fd5b505050506040513d601f19601f820116820180604052508101906103d1919061095e565b101561042a5760405162461bcd60e51b815260206004820152602260248201527f496e73756666696369656e742066756e647320696e2074686520636f6e74726160448201526118dd60f21b6064820152608401610225565b3360009081526003602052604081208054839290610449908490610977565b909155505033600081815260036020526040908190204260019182015554905163a9059cbb60e01b81526004810192909252602482018390526001600160a01b03169063a9059cbb906044016020604051808303816000875af11580156104b4573d6000803e3d6000fd5b505050506040513d601f19601f820116820180604052508101906104d8919061093c565b5060405181815233907fd5c776eab9418d89c040ffee59f2310d225f5ff682191bcee59b0413a7fd4835906020016102f6565b6004818154811061051b57600080fd5b6000918252602090912001546001600160a01b0316905081565b336000908152600360205260409020548111156105a65760405162461bcd60e51b815260206004820152602960248201527f4c6f616e20616d6f756e74206973206c657373207468616e2072657061796d656044820152681b9d08185b5bdd5b9d60ba1b6064820152608401610225565b33600090815260036020526040812080548392906105c5908490610923565b90915550506001546040516323b872dd60e01b8152336004820152306024820152604481018390526001600160a01b03909116906323b872dd906064016020604051808303816000875af1158015610621573d6000803e3d6000fd5b505050506040513d601f19601f82011682018060405250810190610645919061093c565b5060405181815233907fc200a1f31dd659e356e0f112c82558e25f49f7b0f84438691cd96f5cb3558823906020016102f6565b600081116106c85760405162461bcd60e51b815260206004820181905260248201527f416d6f756e74206d7573742062652067726561746572207468616e207a65726f6044820152606401610225565b6001546040516323b872dd60e01b8152336004820152306024820152604481018390526001600160a01b03909116906323b872dd906064016020604051808303816000875af115801561071f573d6000803e3d6000fd5b505050506040513d601f19601f82011682018060405250810190610743919061093c565b5033600090815260026020526040812054900361079d57600480546001810182556000919091527f8a35acfbc15ff81a39ae7d344fd709f28e8600b4aa8c65c6b64bfe7fe36bd19b0180546001600160a01b031916331790555b33600090815260026020526040812080548392906107bc908490610977565b9091555050336000818152600260205260409081902042600190910155517f2da466a7b24304f47e87fa2e1e5a81b9831ce54fec19055ce277ca2f39ba42c4906102f69084815260200190565b610811610847565b6001600160a01b03811661083b57604051631e4fbdf760e01b815260006004820152602401610225565b61084481610874565b50565b6000546001600160a01b031633146103135760405163118cdaa760e01b8152336004820152602401610225565b600080546001600160a01b038381166001600160a01b0319831681178455604051919092169283917f8be0079c531659141344cd1fd0a4f28419497f9722a3daafe3b4186f6b6457e09190a35050565b6000602082840312156108d657600080fd5b5035919050565b6000602082840312156108ef57600080fd5b81356001600160a01b038116811461090657600080fd5b9392505050565b634e487b7160e01b600052601160045260246000fd5b818103818111156109365761093661090d565b92915050565b60006020828403121561094e57600080fd5b8151801515811461090657600080fd5b60006020828403121561097057600080fd5b5051919050565b808201808211156109365761093661090d56fea264697066735822122027e8b9d375733ed822f4fb8f6e1bba47a3ba29335b5ab0e11c45f9c3bc17ff2164736f6c63430008140033",
    "immutableReferences": {},
    "source": "// SPDX-License-Identifier: MIT\npragma solidity ^0.8.20;\n\nimport \"./LendingBorrowing.sol\";\n\ncontract ConcreteLendingBorrowing is LendingBorrowing {\n    constructor(IERC20 _token) LendingBorrowing(_token) Ownable(msg.sender) {}\n\n    function deposit(uint256 amount) external override {\n        require(amount > 0, \"Amount must be greater than zero\");\n        token.transferFrom(msg.sender, address(this), amount);\n\n        if (deposits[msg.sender].amount == 0) {\n            depositorAddresses.push(msg.sender);\n        }\n\n        deposits[msg.sender].amount += amount;\n        deposits[msg.sender].timestamp = block.timestamp;\n\n        emit Deposited(msg.sender, amount);\n    }\n\n    function withdraw(uint256 amount) external override {\n        require(\n            deposits[msg.sender].amount >= amount,\n            \"Insufficient balance to withdraw\"\n        );\n\n        deposits[msg.sender].amount -= amount;\n        token.transfer(msg.sender, amount);\n\n        emit Withdrawn(msg.sender, amount);\n    }\n\n    function takeLoan(uint256 amount) external override {\n        require(amount > 0, \"Amount must be greater than zero\");\n        require(\n            token.balanceOf(address(this)) >= amount,\n            \"Insufficient funds in the contract\"\n        );\n\n        loans[msg.sender].amount += amount;\n        loans[msg.sender].timestamp = block.timestamp;\n        token.transfer(msg.sender, amount);\n\n        emit LoanTaken(msg.sender, amount);\n    }\n\n    function repayLoan(uint256 amount) external override {\n        require(\n            loans[msg.sender].amount >= amount,\n            \"Loan amount is less than repayment amount\"\n        );\n\n        loans[msg.sender].amount -= amount;\n        token.transferFrom(msg.sender, address(this), amount);\n\n        emit LoanRepaid(msg.sender, amount);\n    }\n}\n",
    "sourcePath": "/home/rumpas/Documents/DeFiProtocol/contracts/ConcreteLendingBorrowing.sol",
    "compiler": {
        "name": "solc",
        "version": "0.8.20+commit.a1b79de6.Emscripten.clang"
    },
    "schemaVersion": "3.4.16",
    "updatedAt": "2024-08-05T08:56:26.352Z",
    "networkType": "ethereum",
    "devdoc": {
        "errors": {
            "OwnableInvalidOwner(address)": [
                {
                    "details": "The owner is not a valid owner account. (eg. `address(0)`)"
                }
            ],
            "OwnableUnauthorizedAccount(address)": [
                {
                    "details": "The caller account is not authorized to perform an operation."
                }
            ]
        },
        "kind": "dev",
        "methods": {
            "owner()": {
                "details": "Returns the address of the current owner."
            },
            "renounceOwnership()": {
                "details": "Leaves the contract without owner. It will not be possible to call `onlyOwner` functions. Can only be called by the current owner. NOTE: Renouncing ownership will leave the contract without an owner, thereby disabling any functionality that is only available to the owner."
            },
            "transferOwnership(address)": {
                "details": "Transfers ownership of the contract to a new account (`newOwner`). Can only be called by the current owner."
            }
        },
        "version": 1
    },
    "userdoc": {
        "kind": "user",
        "methods": {},
        "version": 1
    }
}