{
    "contractName": "MyToken",
    "abi": [
        {
            "inputs": [],
            "stateMutability": "nonpayable",
            "type": "constructor"
        },
        {
            "inputs": [
                {
                    "internalType": "address",
                    "name": "spender",
                    "type": "address"
                },
                {
                    "internalType": "uint256",
                    "name": "allowance",
                    "type": "uint256"
                },
                {
                    "internalType": "uint256",
                    "name": "needed",
                    "type": "uint256"
                }
            ],
            "name": "ERC20InsufficientAllowance",
            "type": "error"
        },
        {
            "inputs": [
                {
                    "internalType": "address",
                    "name": "sender",
                    "type": "address"
                },
                {
                    "internalType": "uint256",
                    "name": "balance",
                    "type": "uint256"
                },
                {
                    "internalType": "uint256",
                    "name": "needed",
                    "type": "uint256"
                }
            ],
            "name": "ERC20InsufficientBalance",
            "type": "error"
        },
        {
            "inputs": [
                {
                    "internalType": "address",
                    "name": "approver",
                    "type": "address"
                }
            ],
            "name": "ERC20InvalidApprover",
            "type": "error"
        },
        {
            "inputs": [
                {
                    "internalType": "address",
                    "name": "receiver",
                    "type": "address"
                }
            ],
            "name": "ERC20InvalidReceiver",
            "type": "error"
        },
        {
            "inputs": [
                {
                    "internalType": "address",
                    "name": "sender",
                    "type": "address"
                }
            ],
            "name": "ERC20InvalidSender",
            "type": "error"
        },
        {
            "inputs": [
                {
                    "internalType": "address",
                    "name": "spender",
                    "type": "address"
                }
            ],
            "name": "ERC20InvalidSpender",
            "type": "error"
        },
        {
            "inputs": [
                {
                    "internalType": "address",
                    "name": "owner",
                    "type": "address"
                }
            ],
            "name": "OwnableInvalidOwner",
            "type": "error"
        },
        {
            "inputs": [
                {
                    "internalType": "address",
                    "name": "account",
                    "type": "address"
                }
            ],
            "name": "OwnableUnauthorizedAccount",
            "type": "error"
        },
        {
            "anonymous": false,
            "inputs": [
                {
                    "indexed": true,
                    "internalType": "address",
                    "name": "owner",
                    "type": "address"
                },
                {
                    "indexed": true,
                    "internalType": "address",
                    "name": "spender",
                    "type": "address"
                },
                {
                    "indexed": false,
                    "internalType": "uint256",
                    "name": "value",
                    "type": "uint256"
                }
            ],
            "name": "Approval",
            "type": "event"
        },
        {
            "anonymous": false,
            "inputs": [
                {
                    "indexed": true,
                    "internalType": "address",
                    "name": "owner",
                    "type": "address"
                },
                {
                    "indexed": false,
                    "internalType": "uint256",
                    "name": "amount",
                    "type": "uint256"
                }
            ],
            "name": "ETHWithdrawn",
            "type": "event"
        },
        {
            "anonymous": false,
            "inputs": [
                {
                    "indexed": true,
                    "internalType": "address",
                    "name": "previousOwner",
                    "type": "address"
                },
                {
                    "indexed": true,
                    "internalType": "address",
                    "name": "newOwner",
                    "type": "address"
                }
            ],
            "name": "OwnershipTransferred",
            "type": "event"
        },
        {
            "anonymous": false,
            "inputs": [
                {
                    "indexed": true,
                    "internalType": "address",
                    "name": "buyer",
                    "type": "address"
                },
                {
                    "indexed": false,
                    "internalType": "uint256",
                    "name": "amount",
                    "type": "uint256"
                }
            ],
            "name": "TokensBought",
            "type": "event"
        },
        {
            "anonymous": false,
            "inputs": [
                {
                    "indexed": true,
                    "internalType": "address",
                    "name": "owner",
                    "type": "address"
                },
                {
                    "indexed": false,
                    "internalType": "uint256",
                    "name": "amount",
                    "type": "uint256"
                }
            ],
            "name": "TokensWithdrawn",
            "type": "event"
        },
        {
            "anonymous": false,
            "inputs": [
                {
                    "indexed": true,
                    "internalType": "address",
                    "name": "from",
                    "type": "address"
                },
                {
                    "indexed": true,
                    "internalType": "address",
                    "name": "to",
                    "type": "address"
                },
                {
                    "indexed": false,
                    "internalType": "uint256",
                    "name": "value",
                    "type": "uint256"
                }
            ],
            "name": "Transfer",
            "type": "event"
        },
        {
            "inputs": [],
            "name": "INITIAL_SUPPLY",
            "outputs": [
                {
                    "internalType": "uint256",
                    "name": "",
                    "type": "uint256"
                }
            ],
            "stateMutability": "view",
            "type": "function",
            "constant": true
        },
        {
            "inputs": [],
            "name": "PUBLIC_SALE_SUPPLY_PERCENTAGE",
            "outputs": [
                {
                    "internalType": "uint256",
                    "name": "",
                    "type": "uint256"
                }
            ],
            "stateMutability": "view",
            "type": "function",
            "constant": true
        },
        {
            "inputs": [],
            "name": "TEAM_SUPPLY_PERCENTAGE",
            "outputs": [
                {
                    "internalType": "uint256",
                    "name": "",
                    "type": "uint256"
                }
            ],
            "stateMutability": "view",
            "type": "function",
            "constant": true
        },
        {
            "inputs": [
                {
                    "internalType": "address",
                    "name": "owner",
                    "type": "address"
                },
                {
                    "internalType": "address",
                    "name": "spender",
                    "type": "address"
                }
            ],
            "name": "allowance",
            "outputs": [
                {
                    "internalType": "uint256",
                    "name": "",
                    "type": "uint256"
                }
            ],
            "stateMutability": "view",
            "type": "function",
            "constant": true
        },
        {
            "inputs": [
                {
                    "internalType": "address",
                    "name": "spender",
                    "type": "address"
                },
                {
                    "internalType": "uint256",
                    "name": "value",
                    "type": "uint256"
                }
            ],
            "name": "approve",
            "outputs": [
                {
                    "internalType": "bool",
                    "name": "",
                    "type": "bool"
                }
            ],
            "stateMutability": "nonpayable",
            "type": "function"
        },
        {
            "inputs": [
                {
                    "internalType": "address",
                    "name": "account",
                    "type": "address"
                }
            ],
            "name": "balanceOf",
            "outputs": [
                {
                    "internalType": "uint256",
                    "name": "",
                    "type": "uint256"
                }
            ],
            "stateMutability": "view",
            "type": "function",
            "constant": true
        },
        {
            "inputs": [],
            "name": "decimals",
            "outputs": [
                {
                    "internalType": "uint8",
                    "name": "",
                    "type": "uint8"
                }
            ],
            "stateMutability": "view",
            "type": "function",
            "constant": true
        },
        {
            "inputs": [],
            "name": "name",
            "outputs": [
                {
                    "internalType": "string",
                    "name": "",
                    "type": "string"
                }
            ],
            "stateMutability": "view",
            "type": "function",
            "constant": true
        },
        {
            "inputs": [],
            "name": "owner",
            "outputs": [
                {
                    "internalType": "address",
                    "name": "",
                    "type": "address"
                }
            ],
            "stateMutability": "view",
            "type": "function",
            "constant": true
        },
        {
            "inputs": [],
            "name": "renounceOwnership",
            "outputs": [],
            "stateMutability": "nonpayable",
            "type": "function"
        },
        {
            "inputs": [],
            "name": "symbol",
            "outputs": [
                {
                    "internalType": "string",
                    "name": "",
                    "type": "string"
                }
            ],
            "stateMutability": "view",
            "type": "function",
            "constant": true
        },
        {
            "inputs": [],
            "name": "totalSupply",
            "outputs": [
                {
                    "internalType": "uint256",
                    "name": "",
                    "type": "uint256"
                }
            ],
            "stateMutability": "view",
            "type": "function",
            "constant": true
        },
        {
            "inputs": [
                {
                    "internalType": "address",
                    "name": "to",
                    "type": "address"
                },
                {
                    "internalType": "uint256",
                    "name": "value",
                    "type": "uint256"
                }
            ],
            "name": "transfer",
            "outputs": [
                {
                    "internalType": "bool",
                    "name": "",
                    "type": "bool"
                }
            ],
            "stateMutability": "nonpayable",
            "type": "function"
        },
        {
            "inputs": [
                {
                    "internalType": "address",
                    "name": "from",
                    "type": "address"
                },
                {
                    "internalType": "address",
                    "name": "to",
                    "type": "address"
                },
                {
                    "internalType": "uint256",
                    "name": "value",
                    "type": "uint256"
                }
            ],
            "name": "transferFrom",
            "outputs": [
                {
                    "internalType": "bool",
                    "name": "",
                    "type": "bool"
                }
            ],
            "stateMutability": "nonpayable",
            "type": "function"
        },
        {
            "inputs": [
                {
                    "internalType": "address",
                    "name": "newOwner",
                    "type": "address"
                }
            ],
            "name": "transferOwnership",
            "outputs": [],
            "stateMutability": "nonpayable",
            "type": "function"
        },
        {
            "stateMutability": "payable",
            "type": "receive",
            "payable": true
        },
        {
            "inputs": [],
            "name": "buyTokens",
            "outputs": [],
            "stateMutability": "payable",
            "type": "function",
            "payable": true
        },
        {
            "inputs": [],
            "name": "withdrawETH",
            "outputs": [],
            "stateMutability": "nonpayable",
            "type": "function"
        },
        {
            "inputs": [
                {
                    "internalType": "uint256",
                    "name": "amount",
                    "type": "uint256"
                }
            ],
            "name": "withdrawTokens",
            "outputs": [],
            "stateMutability": "nonpayable",
            "type": "function"
        }
    ],
    "bytecode": "0x60806040523480156200001157600080fd5b50336040518060400160405280600781526020016626bcaa37b5b2b760c91b815250604051806040016040528060038152602001624d544b60e81b815250816003908162000060919062000388565b5060046200006f828262000388565b5050506001600160a01b038116620000a257604051631e4fbdf760e01b8152600060048201526024015b60405180910390fd5b620000ad8162000120565b5060006064620000c9601469d3c21bcecceda10000006200046a565b620000d591906200048a565b905060006064620000f2605069d3c21bcecceda10000006200046a565b620000fe91906200048a565b90506200010c338362000172565b62000118308262000172565b5050620004c3565b600580546001600160a01b038381166001600160a01b0319831681179093556040519116919082907f8be0079c531659141344cd1fd0a4f28419497f9722a3daafe3b4186f6b6457e090600090a35050565b6001600160a01b0382166200019e5760405163ec442f0560e01b81526000600482015260240162000099565b620001ac60008383620001b0565b5050565b6001600160a01b038316620001df578060026000828254620001d39190620004ad565b90915550620002539050565b6001600160a01b03831660009081526020819052604090205481811015620002345760405163391434e360e21b81526001600160a01b0385166004820152602481018290526044810183905260640162000099565b6001600160a01b03841660009081526020819052604090209082900390555b6001600160a01b038216620002715760028054829003905562000290565b6001600160a01b03821660009081526020819052604090208054820190555b816001600160a01b0316836001600160a01b03167fddf252ad1be2c89b69c2b068fc378daa952ba7f163c4a11628f55a4df523b3ef83604051620002d691815260200190565b60405180910390a3505050565b634e487b7160e01b600052604160045260246000fd5b600181811c908216806200030e57607f821691505b6020821081036200032f57634e487b7160e01b600052602260045260246000fd5b50919050565b601f8211156200038357600081815260208120601f850160051c810160208610156200035e5750805b601f850160051c820191505b818110156200037f578281556001016200036a565b5050505b505050565b81516001600160401b03811115620003a457620003a4620002e3565b620003bc81620003b58454620002f9565b8462000335565b602080601f831160018114620003f45760008415620003db5750858301515b600019600386901b1c1916600185901b1785556200037f565b600085815260208120601f198616915b82811015620004255788860151825594840194600190910190840162000404565b5085821015620004445787850151600019600388901b60f8161c191681555b5050505050600190811b01905550565b634e487b7160e01b600052601160045260246000fd5b808202811582820484141762000484576200048462000454565b92915050565b600082620004a857634e487b7160e01b600052601260045260246000fd5b500490565b8082018082111562000484576200048462000454565b610cf880620004d36000396000f3fe60806040526004361061010d5760003560e01c8063715018a611610095578063a9059cbb11610064578063a9059cbb1461030e578063d0febe4c1461032e578063dd62ed3e14610336578063e086e5ec1461037c578063f2fde38b1461039157600080fd5b8063715018a6146102a7578063789ee630146102bc5780638da5cb5b146102d157806395d89b41146102f957600080fd5b80632d451a10116100dc5780632d451a10146102025780632ff2e9dc14610217578063313ce56714610235578063315a095d1461025157806370a082311461027157600080fd5b806306fdde0314610168578063095ea7b31461019357806318160ddd146101c357806323b872dd146101e257600080fd5b3661016357306001600160a01b031663d0febe4c346040518263ffffffff1660e01b81526004016000604051808303818588803b15801561014d57600080fd5b505af1158015610161573d6000803e3d6000fd5b005b600080fd5b34801561017457600080fd5b5061017d6103b1565b60405161018a9190610b0a565b60405180910390f35b34801561019f57600080fd5b506101b36101ae366004610b74565b610443565b604051901515815260200161018a565b3480156101cf57600080fd5b506002545b60405190815260200161018a565b3480156101ee57600080fd5b506101b36101fd366004610b9e565b61045d565b34801561020e57600080fd5b506101d4605081565b34801561022357600080fd5b506101d469d3c21bcecceda100000081565b34801561024157600080fd5b506040516012815260200161018a565b34801561025d57600080fd5b5061016161026c366004610bda565b610481565b34801561027d57600080fd5b506101d461028c366004610bf3565b6001600160a01b031660009081526020819052604090205490565b3480156102b357600080fd5b5061016161055a565b3480156102c857600080fd5b506101d4601481565b3480156102dd57600080fd5b506005546040516001600160a01b03909116815260200161018a565b34801561030557600080fd5b5061017d61056e565b34801561031a57600080fd5b506101b3610329366004610b74565b61057d565b61016161058b565b34801561034257600080fd5b506101d4610351366004610c15565b6001600160a01b03918216600090815260016020908152604080832093909416825291909152205490565b34801561038857600080fd5b50610161610693565b34801561039d57600080fd5b506101616103ac366004610bf3565b61075f565b6060600380546103c090610c48565b80601f01602080910402602001604051908101604052809291908181526020018280546103ec90610c48565b80156104395780601f1061040e57610100808354040283529160200191610439565b820191906000526020600020905b81548152906001019060200180831161041c57829003601f168201915b5050505050905090565b60003361045181858561079d565b60019150505b92915050565b60003361046b8582856107af565b61047685858561082d565b506001949350505050565b61048961088c565b306000908152602081905260409020548111156104ed5760405162461bcd60e51b815260206004820152601b60248201527f4e6f7420656e6f75676820746f6b656e7320617661696c61626c65000000000060448201526064015b60405180910390fd5b610509306105036005546001600160a01b031690565b8361082d565b6005546001600160a01b03166001600160a01b03167f6352c5382c4a4578e712449ca65e83cdb392d045dfcf1cad9615189db2da244b8260405161054f91815260200190565b60405180910390a250565b61056261088c565b61056c60006108b9565b565b6060600480546103c090610c48565b60003361045181858561082d565b600034116105db5760405162461bcd60e51b815260206004820181905260248201527f4554482076616c7565206d7573742062652067726561746572207468616e203060448201526064016104e4565b60006105e8346064610c98565b306000908152602081905260409020549091508111156106565760405162461bcd60e51b8152602060048201526024808201527f4e6f7420656e6f75676820746f6b656e7320617661696c61626c6520666f722060448201526373616c6560e01b60648201526084016104e4565b61066130338361082d565b60405181815233907f745f661b8143944fb883f50694ebed3a871e43c451d9d4bf4648a9d551d7e47a9060200161054f565b61069b61088c565b47806106de5760405162461bcd60e51b81526020600482015260126024820152714e6f2045544820746f20776974686472617760701b60448201526064016104e4565b6005546040516001600160a01b039091169082156108fc029083906000818181858888f19350505050158015610718573d6000803e3d6000fd5b506005546001600160a01b03166001600160a01b03167f94b2de810873337ed265c5f8cf98c9cffefa06b8607f9a2f1fbaebdfbcfbef1c8260405161054f91815260200190565b61076761088c565b6001600160a01b03811661079157604051631e4fbdf760e01b8152600060048201526024016104e4565b61079a816108b9565b50565b6107aa838383600161090b565b505050565b6001600160a01b038381166000908152600160209081526040808320938616835292905220546000198114610827578181101561081857604051637dc7a0d960e11b81526001600160a01b038416600482015260248101829052604481018390526064016104e4565b6108278484848403600061090b565b50505050565b6001600160a01b03831661085757604051634b637e8f60e11b8152600060048201526024016104e4565b6001600160a01b0382166108815760405163ec442f0560e01b8152600060048201526024016104e4565b6107aa8383836109e0565b6005546001600160a01b0316331461056c5760405163118cdaa760e01b81523360048201526024016104e4565b600580546001600160a01b038381166001600160a01b0319831681179093556040519116919082907f8be0079c531659141344cd1fd0a4f28419497f9722a3daafe3b4186f6b6457e090600090a35050565b6001600160a01b0384166109355760405163e602df0560e01b8152600060048201526024016104e4565b6001600160a01b03831661095f57604051634a1406b160e11b8152600060048201526024016104e4565b6001600160a01b038085166000908152600160209081526040808320938716835292905220829055801561082757826001600160a01b0316846001600160a01b03167f8c5be1e5ebec7d5bd14f71427d1e84f3dd0314c0f7b2291e5b200ac8c7c3b925846040516109d291815260200190565b60405180910390a350505050565b6001600160a01b038316610a0b578060026000828254610a009190610caf565b90915550610a7d9050565b6001600160a01b03831660009081526020819052604090205481811015610a5e5760405163391434e360e21b81526001600160a01b038516600482015260248101829052604481018390526064016104e4565b6001600160a01b03841660009081526020819052604090209082900390555b6001600160a01b038216610a9957600280548290039055610ab8565b6001600160a01b03821660009081526020819052604090208054820190555b816001600160a01b0316836001600160a01b03167fddf252ad1be2c89b69c2b068fc378daa952ba7f163c4a11628f55a4df523b3ef83604051610afd91815260200190565b60405180910390a3505050565b600060208083528351808285015260005b81811015610b3757858101830151858201604001528201610b1b565b506000604082860101526040601f19601f8301168501019250505092915050565b80356001600160a01b0381168114610b6f57600080fd5b919050565b60008060408385031215610b8757600080fd5b610b9083610b58565b946020939093013593505050565b600080600060608486031215610bb357600080fd5b610bbc84610b58565b9250610bca60208501610b58565b9150604084013590509250925092565b600060208284031215610bec57600080fd5b5035919050565b600060208284031215610c0557600080fd5b610c0e82610b58565b9392505050565b60008060408385031215610c2857600080fd5b610c3183610b58565b9150610c3f60208401610b58565b90509250929050565b600181811c90821680610c5c57607f821691505b602082108103610c7c57634e487b7160e01b600052602260045260246000fd5b50919050565b634e487b7160e01b600052601160045260246000fd5b808202811582820484141761045757610457610c82565b8082018082111561045757610457610c8256fea2646970667358221220d4965fe3bd429a0f8e77b29d5552ddc844998e99fec51bf235ebdf35318cb75264736f6c63430008140033",
    "immutableReferences": {},
    "source": "// SPDX-License-Identifier: MIT\npragma solidity ^0.8.20;\n\nimport \"@openzeppelin/contracts/token/ERC20/ERC20.sol\";\nimport \"@openzeppelin/contracts/access/Ownable.sol\";\n\ncontract MyToken is ERC20, Ownable {\n    uint256 public constant INITIAL_SUPPLY = 1000000 * 10 ** 18;\n    uint256 public constant TEAM_SUPPLY_PERCENTAGE = 20;\n    uint256 public constant PUBLIC_SALE_SUPPLY_PERCENTAGE = 80;\n\n    event TokensBought(address indexed buyer, uint256 amount);\n    event ETHWithdrawn(address indexed owner, uint256 amount);\n    event TokensWithdrawn(address indexed owner, uint256 amount);\n\n    constructor() ERC20(\"MyToken\", \"MTK\") Ownable(msg.sender) {\n        uint256 teamSupply = (INITIAL_SUPPLY * TEAM_SUPPLY_PERCENTAGE) / 100;\n        uint256 publicSaleSupply = (INITIAL_SUPPLY *\n            PUBLIC_SALE_SUPPLY_PERCENTAGE) / 100;\n        _mint(msg.sender, teamSupply);\n        _mint(address(this), publicSaleSupply);\n    }\n\n    function buyTokens() external payable {\n        require(msg.value > 0, \"ETH value must be greater than 0\");\n        uint256 tokensToBuy = msg.value * 100; // Example rate: 1 ETH = 100 tokens\n        require(\n            balanceOf(address(this)) >= tokensToBuy,\n            \"Not enough tokens available for sale\"\n        );\n        _transfer(address(this), msg.sender, tokensToBuy);\n        emit TokensBought(msg.sender, tokensToBuy);\n    }\n\n    function withdrawETH() external onlyOwner {\n        uint256 balance = address(this).balance;\n        require(balance > 0, \"No ETH to withdraw\");\n        payable(owner()).transfer(balance);\n        emit ETHWithdrawn(owner(), balance);\n    }\n\n    function withdrawTokens(uint256 amount) external onlyOwner {\n        require(\n            balanceOf(address(this)) >= amount,\n            \"Not enough tokens available\"\n        );\n        _transfer(address(this), owner(), amount);\n        emit TokensWithdrawn(owner(), amount);\n    }\n\n    receive() external payable {\n        this.buyTokens{value: msg.value}();\n    }\n}\n",
    "sourcePath": "/home/rumpas/Documents/DeFiProtocol/contracts/MyToken.sol",
    "compiler": {
        "name": "solc",
        "version": "0.8.20+commit.a1b79de6.Emscripten.clang"
    },
    "schemaVersion": "3.4.16",
    "updatedAt": "2024-08-05T08:56:26.343Z",
    "networkType": "ethereum",
    "devdoc": {
        "errors": {
            "ERC20InsufficientAllowance(address,uint256,uint256)": [
                {
                    "details": "Indicates a failure with the `spender`s `allowance`. Used in transfers.",
                    "params": {
                        "allowance": "Amount of tokens a `spender` is allowed to operate with.",
                        "needed": "Minimum amount required to perform a transfer.",
                        "spender": "Address that may be allowed to operate on tokens without being their owner."
                    }
                }
            ],
            "ERC20InsufficientBalance(address,uint256,uint256)": [
                {
                    "details": "Indicates an error related to the current `balance` of a `sender`. Used in transfers.",
                    "params": {
                        "balance": "Current balance for the interacting account.",
                        "needed": "Minimum amount required to perform a transfer.",
                        "sender": "Address whose tokens are being transferred."
                    }
                }
            ],
            "ERC20InvalidApprover(address)": [
                {
                    "details": "Indicates a failure with the `approver` of a token to be approved. Used in approvals.",
                    "params": {
                        "approver": "Address initiating an approval operation."
                    }
                }
            ],
            "ERC20InvalidReceiver(address)": [
                {
                    "details": "Indicates a failure with the token `receiver`. Used in transfers.",
                    "params": {
                        "receiver": "Address to which tokens are being transferred."
                    }
                }
            ],
            "ERC20InvalidSender(address)": [
                {
                    "details": "Indicates a failure with the token `sender`. Used in transfers.",
                    "params": {
                        "sender": "Address whose tokens are being transferred."
                    }
                }
            ],
            "ERC20InvalidSpender(address)": [
                {
                    "details": "Indicates a failure with the `spender` to be approved. Used in approvals.",
                    "params": {
                        "spender": "Address that may be allowed to operate on tokens without being their owner."
                    }
                }
            ],
            "OwnableInvalidOwner(address)": [
                {
                    "details": "The owner is not a valid owner account. (eg. `address(0)`)"
                }
            ],
            "OwnableUnauthorizedAccount(address)": [
                {
                    "details": "The caller account is not authorized to perform an operation."
                }
            ]
        },
        "events": {
            "Approval(address,address,uint256)": {
                "details": "Emitted when the allowance of a `spender` for an `owner` is set by a call to {approve}. `value` is the new allowance."
            },
            "Transfer(address,address,uint256)": {
                "details": "Emitted when `value` tokens are moved from one account (`from`) to another (`to`). Note that `value` may be zero."
            }
        },
        "kind": "dev",
        "methods": {
            "allowance(address,address)": {
                "details": "See {IERC20-allowance}."
            },
            "approve(address,uint256)": {
                "details": "See {IERC20-approve}. NOTE: If `value` is the maximum `uint256`, the allowance is not updated on `transferFrom`. This is semantically equivalent to an infinite approval. Requirements: - `spender` cannot be the zero address."
            },
            "balanceOf(address)": {
                "details": "See {IERC20-balanceOf}."
            },
            "decimals()": {
                "details": "Returns the number of decimals used to get its user representation. For example, if `decimals` equals `2`, a balance of `505` tokens should be displayed to a user as `5.05` (`505 / 10 ** 2`). Tokens usually opt for a value of 18, imitating the relationship between Ether and Wei. This is the default value returned by this function, unless it's overridden. NOTE: This information is only used for _display_ purposes: it in no way affects any of the arithmetic of the contract, including {IERC20-balanceOf} and {IERC20-transfer}."
            },
            "name()": {
                "details": "Returns the name of the token."
            },
            "owner()": {
                "details": "Returns the address of the current owner."
            },
            "renounceOwnership()": {
                "details": "Leaves the contract without owner. It will not be possible to call `onlyOwner` functions. Can only be called by the current owner. NOTE: Renouncing ownership will leave the contract without an owner, thereby disabling any functionality that is only available to the owner."
            },
            "symbol()": {
                "details": "Returns the symbol of the token, usually a shorter version of the name."
            },
            "totalSupply()": {
                "details": "See {IERC20-totalSupply}."
            },
            "transfer(address,uint256)": {
                "details": "See {IERC20-transfer}. Requirements: - `to` cannot be the zero address. - the caller must have a balance of at least `value`."
            },
            "transferFrom(address,address,uint256)": {
                "details": "See {IERC20-transferFrom}. Emits an {Approval} event indicating the updated allowance. This is not required by the EIP. See the note at the beginning of {ERC20}. NOTE: Does not update the allowance if the current allowance is the maximum `uint256`. Requirements: - `from` and `to` cannot be the zero address. - `from` must have a balance of at least `value`. - the caller must have allowance for ``from``'s tokens of at least `value`."
            },
            "transferOwnership(address)": {
                "details": "Transfers ownership of the contract to a new account (`newOwner`). Can only be called by the current owner."
            }
        },
        "version": 1
    },
    "userdoc": {
        "kind": "user",
        "methods": {},
        "version": 1
    }
}