{
    "contractName": "Staking",
    "abi": [
        {
            "inputs": [
                {
                    "internalType": "contract IERC20",
                    "name": "_token",
                    "type": "address"
                },
                {
                    "internalType": "uint256",
                    "name": "_rewardRate",
                    "type": "uint256"
                }
            ],
            "stateMutability": "nonpayable",
            "type": "constructor"
        },
        {
            "inputs": [
                {
                    "internalType": "address",
                    "name": "owner",
                    "type": "address"
                }
            ],
            "name": "OwnableInvalidOwner",
            "type": "error"
        },
        {
            "inputs": [
                {
                    "internalType": "address",
                    "name": "account",
                    "type": "address"
                }
            ],
            "name": "OwnableUnauthorizedAccount",
            "type": "error"
        },
        {
            "anonymous": false,
            "inputs": [
                {
                    "indexed": true,
                    "internalType": "address",
                    "name": "previousOwner",
                    "type": "address"
                },
                {
                    "indexed": true,
                    "internalType": "address",
                    "name": "newOwner",
                    "type": "address"
                }
            ],
            "name": "OwnershipTransferred",
            "type": "event"
        },
        {
            "anonymous": false,
            "inputs": [
                {
                    "indexed": true,
                    "internalType": "address",
                    "name": "user",
                    "type": "address"
                },
                {
                    "indexed": false,
                    "internalType": "uint256",
                    "name": "amount",
                    "type": "uint256"
                }
            ],
            "name": "RewardsWithdrawn",
            "type": "event"
        },
        {
            "anonymous": false,
            "inputs": [
                {
                    "indexed": true,
                    "internalType": "address",
                    "name": "user",
                    "type": "address"
                },
                {
                    "indexed": false,
                    "internalType": "uint256",
                    "name": "amount",
                    "type": "uint256"
                }
            ],
            "name": "Staked",
            "type": "event"
        },
        {
            "anonymous": false,
            "inputs": [
                {
                    "indexed": true,
                    "internalType": "address",
                    "name": "user",
                    "type": "address"
                },
                {
                    "indexed": false,
                    "internalType": "uint256",
                    "name": "amount",
                    "type": "uint256"
                }
            ],
            "name": "Unstaked",
            "type": "event"
        },
        {
            "inputs": [],
            "name": "owner",
            "outputs": [
                {
                    "internalType": "address",
                    "name": "",
                    "type": "address"
                }
            ],
            "stateMutability": "view",
            "type": "function",
            "constant": true
        },
        {
            "inputs": [],
            "name": "renounceOwnership",
            "outputs": [],
            "stateMutability": "nonpayable",
            "type": "function"
        },
        {
            "inputs": [],
            "name": "rewardRate",
            "outputs": [
                {
                    "internalType": "uint256",
                    "name": "",
                    "type": "uint256"
                }
            ],
            "stateMutability": "view",
            "type": "function",
            "constant": true
        },
        {
            "inputs": [
                {
                    "internalType": "uint256",
                    "name": "",
                    "type": "uint256"
                }
            ],
            "name": "stakerAddresses",
            "outputs": [
                {
                    "internalType": "address",
                    "name": "",
                    "type": "address"
                }
            ],
            "stateMutability": "view",
            "type": "function",
            "constant": true
        },
        {
            "inputs": [
                {
                    "internalType": "address",
                    "name": "",
                    "type": "address"
                }
            ],
            "name": "stakes",
            "outputs": [
                {
                    "internalType": "uint256",
                    "name": "amount",
                    "type": "uint256"
                },
                {
                    "internalType": "uint256",
                    "name": "timestamp",
                    "type": "uint256"
                }
            ],
            "stateMutability": "view",
            "type": "function",
            "constant": true
        },
        {
            "inputs": [],
            "name": "token",
            "outputs": [
                {
                    "internalType": "contract IERC20",
                    "name": "",
                    "type": "address"
                }
            ],
            "stateMutability": "view",
            "type": "function",
            "constant": true
        },
        {
            "inputs": [
                {
                    "internalType": "address",
                    "name": "newOwner",
                    "type": "address"
                }
            ],
            "name": "transferOwnership",
            "outputs": [],
            "stateMutability": "nonpayable",
            "type": "function"
        },
        {
            "inputs": [
                {
                    "internalType": "uint256",
                    "name": "amount",
                    "type": "uint256"
                }
            ],
            "name": "stake",
            "outputs": [],
            "stateMutability": "nonpayable",
            "type": "function"
        },
        {
            "inputs": [
                {
                    "internalType": "uint256",
                    "name": "amount",
                    "type": "uint256"
                }
            ],
            "name": "unstake",
            "outputs": [],
            "stateMutability": "nonpayable",
            "type": "function"
        },
        {
            "inputs": [],
            "name": "withdrawRewards",
            "outputs": [],
            "stateMutability": "nonpayable",
            "type": "function"
        },
        {
            "inputs": [],
            "name": "getStakers",
            "outputs": [
                {
                    "internalType": "address[]",
                    "name": "",
                    "type": "address[]"
                }
            ],
            "stateMutability": "view",
            "type": "function",
            "constant": true
        }
    ],
    "bytecode": "0x608060405234801561001057600080fd5b506040516109d33803806109d383398101604081905261002f916100d8565b338061005557604051631e4fbdf760e01b81526000600482015260240160405180910390fd5b61005e81610088565b50600180546001600160a01b0319166001600160a01b039390931692909217909155600255610112565b600080546001600160a01b038381166001600160a01b0319831681178455604051919092169283917f8be0079c531659141344cd1fd0a4f28419497f9722a3daafe3b4186f6b6457e09190a35050565b600080604083850312156100eb57600080fd5b82516001600160a01b038116811461010257600080fd5b6020939093015192949293505050565b6108b2806101216000396000f3fe608060405234801561001057600080fd5b50600436106100a95760003560e01c80637b0a47ee116100715780637b0a47ee1461014c5780638da5cb5b14610163578063a694fc3a14610174578063c7b8981c14610187578063f2fde38b1461018f578063fc0c546a146101a257600080fd5b806316934fc4146100ae5780632e17de78146100ef57806343352d6114610104578063459598a214610119578063715018a614610144575b600080fd5b6100d56100bc366004610749565b6003602052600090815260409020805460019091015482565b604080519283526020830191909152015b60405180910390f35b6101026100fd366004610779565b6101b5565b005b61010c6102ec565b6040516100e69190610792565b61012c610127366004610779565b61034e565b6040516001600160a01b0390911681526020016100e6565b610102610378565b61015560025481565b6040519081526020016100e6565b6000546001600160a01b031661012c565b610102610182366004610779565b61038c565b61010261051d565b61010261019d366004610749565b61068e565b60015461012c906001600160a01b031681565b336000908152600360205260409020548111156102195760405162461bcd60e51b815260206004820152601f60248201527f496e73756666696369656e742062616c616e636520746f20756e7374616b650060448201526064015b60405180910390fd5b33600090815260036020526040812080548392906102389084906107f5565b909155505060015460405163a9059cbb60e01b8152336004820152602481018390526001600160a01b039091169063a9059cbb906044016020604051808303816000875af115801561028e573d6000803e3d6000fd5b505050506040513d601f19601f820116820180604052508101906102b2919061080e565b5060405181815233907f0f5bb82176feb1b5e747e28471aa92156a04d9f3ab9f45f28e2d704232b93f75906020015b60405180910390a250565b6060600480548060200260200160405190810160405280929190818152602001828054801561034457602002820191906000526020600020905b81546001600160a01b03168152600190910190602001808311610326575b5050505050905090565b6004818154811061035e57600080fd5b6000918252602090912001546001600160a01b0316905081565b6103806106cc565b61038a60006106f9565b565b600081116103dc5760405162461bcd60e51b815260206004820181905260248201527f416d6f756e74206d7573742062652067726561746572207468616e207a65726f6044820152606401610210565b6001546040516323b872dd60e01b8152336004820152306024820152604481018390526001600160a01b03909116906323b872dd906064016020604051808303816000875af1158015610433573d6000803e3d6000fd5b505050506040513d601f19601f82011682018060405250810190610457919061080e565b503360009081526003602052604081205490036104b157600480546001810182556000919091527f8a35acfbc15ff81a39ae7d344fd709f28e8600b4aa8c65c6b64bfe7fe36bd19b0180546001600160a01b031916331790555b33600090815260036020526040812080548392906104d0908490610830565b9091555050336000818152600360205260409081902042600190910155517f9e71bc8eea02a63969f509818f2dafb9254532904319f9dbda79b67bd34a5f3d906102e19084815260200190565b3360009081526003602052604090205461056b5760405162461bcd60e51b815260206004820152600f60248201526e139bc81cdd185ad95cc8199bdd5b99608a1b6044820152606401610210565b3360009081526003602052604081206001015461058890426107f5565b600254336000908152600360205260408120549293509163bbf81e009184916105b19190610843565b6105bb9190610843565b6105c5919061085a565b33600081815260036020526040908190204260019182015554905163a9059cbb60e01b81526004810192909252602482018390529192506001600160a01b039091169063a9059cbb906044016020604051808303816000875af1158015610630573d6000803e3d6000fd5b505050506040513d601f19601f82011682018060405250810190610654919061080e565b5060405181815233907f8a43c4352486ec339f487f64af78ca5cbf06cd47833f073d3baf3a193e5031619060200160405180910390a25050565b6106966106cc565b6001600160a01b0381166106c057604051631e4fbdf760e01b815260006004820152602401610210565b6106c9816106f9565b50565b6000546001600160a01b0316331461038a5760405163118cdaa760e01b8152336004820152602401610210565b600080546001600160a01b038381166001600160a01b0319831681178455604051919092169283917f8be0079c531659141344cd1fd0a4f28419497f9722a3daafe3b4186f6b6457e09190a35050565b60006020828403121561075b57600080fd5b81356001600160a01b038116811461077257600080fd5b9392505050565b60006020828403121561078b57600080fd5b5035919050565b6020808252825182820181905260009190848201906040850190845b818110156107d35783516001600160a01b0316835292840192918401916001016107ae565b50909695505050505050565b634e487b7160e01b600052601160045260246000fd5b81810381811115610808576108086107df565b92915050565b60006020828403121561082057600080fd5b8151801515811461077257600080fd5b80820180821115610808576108086107df565b8082028115828204841417610808576108086107df565b60008261087757634e487b7160e01b600052601260045260246000fd5b50049056fea264697066735822122046c17373a240afc97c6b7c80b3a4eb9a272634e6628d18b9411d725289e90b1364736f6c63430008140033",
    "immutableReferences": {},
    "source": "// SPDX-License-Identifier: MIT\npragma solidity ^0.8.20;\n\nimport \"@openzeppelin/contracts/token/ERC20/IERC20.sol\";\nimport \"@openzeppelin/contracts/access/Ownable.sol\";\n\ncontract Staking is Ownable {\n    IERC20 public token;\n    uint256 public rewardRate;\n\n    struct Stake {\n        uint256 amount;\n        uint256 timestamp;\n    }\n\n    mapping(address => Stake) public stakes;\n    address[] public stakerAddresses;\n\n    event Staked(address indexed user, uint256 amount);\n    event Unstaked(address indexed user, uint256 amount);\n    event RewardsWithdrawn(address indexed user, uint256 amount);\n\n    constructor(IERC20 _token, uint256 _rewardRate) Ownable(msg.sender) {\n        token = _token;\n        rewardRate = _rewardRate;\n    }\n\n    function stake(uint256 amount) external {\n        require(amount > 0, \"Amount must be greater than zero\");\n        token.transferFrom(msg.sender, address(this), amount);\n\n        if (stakes[msg.sender].amount == 0) {\n            stakerAddresses.push(msg.sender);\n        }\n\n        stakes[msg.sender].amount += amount;\n        stakes[msg.sender].timestamp = block.timestamp;\n\n        emit Staked(msg.sender, amount);\n    }\n\n    function unstake(uint256 amount) external {\n        require(\n            stakes[msg.sender].amount >= amount,\n            \"Insufficient balance to unstake\"\n        );\n\n        stakes[msg.sender].amount -= amount;\n        token.transfer(msg.sender, amount);\n\n        emit Unstaked(msg.sender, amount);\n    }\n\n    function withdrawRewards() external {\n        require(stakes[msg.sender].amount > 0, \"No stakes found\");\n\n        uint256 stakingDuration = block.timestamp -\n            stakes[msg.sender].timestamp;\n        uint256 reward = (stakes[msg.sender].amount *\n            rewardRate *\n            stakingDuration) / (365 days * 100);\n\n        stakes[msg.sender].timestamp = block.timestamp;\n        token.transfer(msg.sender, reward);\n\n        emit RewardsWithdrawn(msg.sender, reward);\n    }\n\n    function getStakers() external view returns (address[] memory) {\n        return stakerAddresses;\n    }\n}\n",
    "sourcePath": "/home/rumpas/Documents/DeFiProtocol/contracts/Staking.sol",
    "compiler": {
        "name": "solc",
        "version": "0.8.20+commit.a1b79de6.Emscripten.clang"
    },
    "schemaVersion": "3.4.16",
    "updatedAt": "2024-08-05T08:56:26.358Z",
    "networkType": "ethereum",
    "devdoc": {
        "errors": {
            "OwnableInvalidOwner(address)": [
                {
                    "details": "The owner is not a valid owner account. (eg. `address(0)`)"
                }
            ],
            "OwnableUnauthorizedAccount(address)": [
                {
                    "details": "The caller account is not authorized to perform an operation."
                }
            ]
        },
        "kind": "dev",
        "methods": {
            "owner()": {
                "details": "Returns the address of the current owner."
            },
            "renounceOwnership()": {
                "details": "Leaves the contract without owner. It will not be possible to call `onlyOwner` functions. Can only be called by the current owner. NOTE: Renouncing ownership will leave the contract without an owner, thereby disabling any functionality that is only available to the owner."
            },
            "transferOwnership(address)": {
                "details": "Transfers ownership of the contract to a new account (`newOwner`). Can only be called by the current owner."
            }
        },
        "version": 1
    },
    "userdoc": {
        "kind": "user",
        "methods": {},
        "version": 1
    }
}